{
  "contractName": "Relay",
  "abi": [
    {
      "constant": true,
      "inputs": [],
      "name": "workerContract",
      "outputs": [
        {
          "name": "",
          "type": "address"
        }
      ],
      "payable": false,
      "stateMutability": "view",
      "type": "function"
    },
    {
      "constant": true,
      "inputs": [],
      "name": "owner",
      "outputs": [
        {
          "name": "",
          "type": "address"
        }
      ],
      "payable": false,
      "stateMutability": "view",
      "type": "function"
    },
    {
      "inputs": [
        {
          "name": "_workerContractAddress",
          "type": "address"
        }
      ],
      "payable": false,
      "stateMutability": "nonpayable",
      "type": "constructor"
    },
    {
      "payable": false,
      "stateMutability": "nonpayable",
      "type": "fallback"
    },
    {
      "constant": false,
      "inputs": [
        {
          "name": "_updatedWorkerContract",
          "type": "address"
        }
      ],
      "name": "update",
      "outputs": [],
      "payable": false,
      "stateMutability": "nonpayable",
      "type": "function"
    }
  ],
  "bytecode": "0x6060604052341561000f57600080fd5b60405160208061038583398101604052808051906020019091905050806000806101000a81548173ffffffffffffffffffffffffffffffffffffffff021916908373ffffffffffffffffffffffffffffffffffffffff16021790555033600160006101000a81548173ffffffffffffffffffffffffffffffffffffffff021916908373ffffffffffffffffffffffffffffffffffffffff160217905550506102c9806100bc6000396000f300606060405260043610610057576000357c0100000000000000000000000000000000000000000000000000000000900463ffffffff1680631c1b8772146100d05780637bde0433146101095780638da5cb5b1461015e575b341561006257600080fd5b6000809054906101000a900473ffffffffffffffffffffffffffffffffffffffff1673ffffffffffffffffffffffffffffffffffffffff16600036604051808383808284378201915050925050506000604051808303818561646e5a03f491505015156100ce57600080fd5b005b34156100db57600080fd5b610107600480803573ffffffffffffffffffffffffffffffffffffffff169060200190919050506101b3565b005b341561011457600080fd5b61011c610252565b604051808273ffffffffffffffffffffffffffffffffffffffff1673ffffffffffffffffffffffffffffffffffffffff16815260200191505060405180910390f35b341561016957600080fd5b610171610277565b604051808273ffffffffffffffffffffffffffffffffffffffff1673ffffffffffffffffffffffffffffffffffffffff16815260200191505060405180910390f35b600160009054906101000a900473ffffffffffffffffffffffffffffffffffffffff1673ffffffffffffffffffffffffffffffffffffffff163373ffffffffffffffffffffffffffffffffffffffff1614151561020f57600080fd5b806000806101000a81548173ffffffffffffffffffffffffffffffffffffffff021916908373ffffffffffffffffffffffffffffffffffffffff16021790555050565b6000809054906101000a900473ffffffffffffffffffffffffffffffffffffffff1681565b600160009054906101000a900473ffffffffffffffffffffffffffffffffffffffff16815600a165627a7a72305820b1aa00816cbc188a02c4964c44911fc2a3107cc29d7074f34a63f534854726240029",
  "source": "pragma solidity ^0.4.17;\r\n\r\ncontract Relay {\r\n    address public workerContract;\r\n    address public owner;\r\n\r\n    function Relay(address _workerContractAddress) public {\r\n        workerContract = _workerContractAddress;\r\n        owner = msg.sender;\r\n    }\r\n\r\n    function update(address _updatedWorkerContract) public {\r\n        if (msg.sender != owner) {\r\n          revert();\r\n        } else {\r\n          workerContract = _updatedWorkerContract;\r\n        }\r\n    }\r\n\r\n    function() public {\r\n        if (!workerContract.delegatecall(msg.data)) {\r\n          revert();\r\n        }\r\n    }\r\n}",
  "sourcePath": "/Users/seanhasselback/rooken/blockchain/contracts/Relay.sol",
  "compiler": {
    "name": "solc",
    "version": "0.4.19+commit.c4cbbb05.Emscripten.clang"
  },
  "schemaVersion": "1.0.1",
  "updatedAt": "2018-03-09T06:03:30.997Z"
}